{
  "_format": "hh-sol-artifact-1",
  "contractName": "EduBlockCert",
  "sourceName": "contracts/EduBlockCert.sol",
  "abi": [
    {
      "inputs": [],
      "stateMutability": "nonpayable",
      "type": "constructor"
    },
    {
      "anonymous": false,
      "inputs": [
        {
          "indexed": true,
          "internalType": "address",
          "name": "owner",
          "type": "address"
        },
        {
          "indexed": true,
          "internalType": "address",
          "name": "approved",
          "type": "address"
        },
        {
          "indexed": true,
          "internalType": "uint256",
          "name": "tokenId",
          "type": "uint256"
        }
      ],
      "name": "Approval",
      "type": "event"
    },
    {
      "anonymous": false,
      "inputs": [
        {
          "indexed": true,
          "internalType": "address",
          "name": "owner",
          "type": "address"
        },
        {
          "indexed": true,
          "internalType": "address",
          "name": "operator",
          "type": "address"
        },
        {
          "indexed": false,
          "internalType": "bool",
          "name": "approved",
          "type": "bool"
        }
      ],
      "name": "ApprovalForAll",
      "type": "event"
    },
    {
      "anonymous": false,
      "inputs": [
        {
          "indexed": false,
          "internalType": "uint256",
          "name": "_fromTokenId",
          "type": "uint256"
        },
        {
          "indexed": false,
          "internalType": "uint256",
          "name": "_toTokenId",
          "type": "uint256"
        }
      ],
      "name": "BatchMetadataUpdate",
      "type": "event"
    },
    {
      "anonymous": false,
      "inputs": [
        {
          "indexed": true,
          "internalType": "address",
          "name": "recipient",
          "type": "address"
        },
        {
          "indexed": true,
          "internalType": "uint256",
          "name": "tokenId",
          "type": "uint256"
        }
      ],
      "name": "CertificateMinted",
      "type": "event"
    },
    {
      "anonymous": false,
      "inputs": [
        {
          "indexed": true,
          "internalType": "uint256",
          "name": "tokenId",
          "type": "uint256"
        }
      ],
      "name": "CertificateRevoked",
      "type": "event"
    },
    {
      "anonymous": false,
      "inputs": [
        {
          "indexed": true,
          "internalType": "uint256",
          "name": "tokenId",
          "type": "uint256"
        },
        {
          "indexed": true,
          "internalType": "address",
          "name": "newOwner",
          "type": "address"
        }
      ],
      "name": "CertificateTransferred",
      "type": "event"
    },
    {
      "anonymous": false,
      "inputs": [
        {
          "indexed": true,
          "internalType": "uint256",
          "name": "tokenId",
          "type": "uint256"
        },
        {
          "indexed": false,
          "internalType": "string",
          "name": "newURI",
          "type": "string"
        }
      ],
      "name": "CertificateURIUpdated",
      "type": "event"
    },
    {
      "anonymous": false,
      "inputs": [
        {
          "indexed": false,
          "internalType": "uint256",
          "name": "_tokenId",
          "type": "uint256"
        }
      ],
      "name": "MetadataUpdate",
      "type": "event"
    },
    {
      "anonymous": false,
      "inputs": [
        {
          "indexed": true,
          "internalType": "address",
          "name": "previousOwner",
          "type": "address"
        },
        {
          "indexed": true,
          "internalType": "address",
          "name": "newOwner",
          "type": "address"
        }
      ],
      "name": "OwnershipTransferred",
      "type": "event"
    },
    {
      "anonymous": false,
      "inputs": [
        {
          "indexed": false,
          "internalType": "address",
          "name": "account",
          "type": "address"
        }
      ],
      "name": "Paused",
      "type": "event"
    },
    {
      "anonymous": false,
      "inputs": [
        {
          "indexed": true,
          "internalType": "address",
          "name": "from",
          "type": "address"
        },
        {
          "indexed": true,
          "internalType": "address",
          "name": "to",
          "type": "address"
        },
        {
          "indexed": true,
          "internalType": "uint256",
          "name": "tokenId",
          "type": "uint256"
        }
      ],
      "name": "Transfer",
      "type": "event"
    },
    {
      "anonymous": false,
      "inputs": [
        {
          "indexed": false,
          "internalType": "address",
          "name": "account",
          "type": "address"
        }
      ],
      "name": "Unpaused",
      "type": "event"
    },
    {
      "inputs": [
        {
          "internalType": "address",
          "name": "to",
          "type": "address"
        },
        {
          "internalType": "uint256",
          "name": "tokenId",
          "type": "uint256"
        }
      ],
      "name": "approve",
      "outputs": [],
      "stateMutability": "nonpayable",
      "type": "function"
    },
    {
      "inputs": [
        {
          "internalType": "address",
          "name": "owner",
          "type": "address"
        }
      ],
      "name": "balanceOf",
      "outputs": [
        {
          "internalType": "uint256",
          "name": "",
          "type": "uint256"
        }
      ],
      "stateMutability": "view",
      "type": "function"
    },
    {
      "inputs": [
        {
          "internalType": "uint256",
          "name": "tokenId",
          "type": "uint256"
        }
      ],
      "name": "getApproved",
      "outputs": [
        {
          "internalType": "address",
          "name": "",
          "type": "address"
        }
      ],
      "stateMutability": "view",
      "type": "function"
    },
    {
      "inputs": [
        {
          "internalType": "uint256",
          "name": "tokenId",
          "type": "uint256"
        }
      ],
      "name": "getCertificateData",
      "outputs": [
        {
          "internalType": "string",
          "name": "uri",
          "type": "string"
        },
        {
          "internalType": "bool",
          "name": "isRevoked",
          "type": "bool"
        }
      ],
      "stateMutability": "view",
      "type": "function"
    },
    {
      "inputs": [
        {
          "internalType": "address",
          "name": "owner",
          "type": "address"
        },
        {
          "internalType": "address",
          "name": "operator",
          "type": "address"
        }
      ],
      "name": "isApprovedForAll",
      "outputs": [
        {
          "internalType": "bool",
          "name": "",
          "type": "bool"
        }
      ],
      "stateMutability": "view",
      "type": "function"
    },
    {
      "inputs": [
        {
          "internalType": "uint256",
          "name": "tokenId",
          "type": "uint256"
        }
      ],
      "name": "isCertificateValid",
      "outputs": [
        {
          "internalType": "bool",
          "name": "",
          "type": "bool"
        }
      ],
      "stateMutability": "view",
      "type": "function"
    },
    {
      "inputs": [
        {
          "internalType": "address",
          "name": "recipient",
          "type": "address"
        },
        {
          "internalType": "string",
          "name": "tokenURI",
          "type": "string"
        }
      ],
      "name": "mintCertificate",
      "outputs": [
        {
          "internalType": "uint256",
          "name": "",
          "type": "uint256"
        }
      ],
      "stateMutability": "nonpayable",
      "type": "function"
    },
    {
      "inputs": [],
      "name": "name",
      "outputs": [
        {
          "internalType": "string",
          "name": "",
          "type": "string"
        }
      ],
      "stateMutability": "view",
      "type": "function"
    },
    {
      "inputs": [],
      "name": "owner",
      "outputs": [
        {
          "internalType": "address",
          "name": "",
          "type": "address"
        }
      ],
      "stateMutability": "view",
      "type": "function"
    },
    {
      "inputs": [
        {
          "internalType": "uint256",
          "name": "tokenId",
          "type": "uint256"
        }
      ],
      "name": "ownerOf",
      "outputs": [
        {
          "internalType": "address",
          "name": "",
          "type": "address"
        }
      ],
      "stateMutability": "view",
      "type": "function"
    },
    {
      "inputs": [],
      "name": "pauseContract",
      "outputs": [],
      "stateMutability": "nonpayable",
      "type": "function"
    },
    {
      "inputs": [],
      "name": "paused",
      "outputs": [
        {
          "internalType": "bool",
          "name": "",
          "type": "bool"
        }
      ],
      "stateMutability": "view",
      "type": "function"
    },
    {
      "inputs": [],
      "name": "renounceOwnership",
      "outputs": [],
      "stateMutability": "nonpayable",
      "type": "function"
    },
    {
      "inputs": [
        {
          "internalType": "uint256",
          "name": "tokenId",
          "type": "uint256"
        }
      ],
      "name": "revokeCertificate",
      "outputs": [],
      "stateMutability": "nonpayable",
      "type": "function"
    },
    {
      "inputs": [
        {
          "internalType": "address",
          "name": "from",
          "type": "address"
        },
        {
          "internalType": "address",
          "name": "to",
          "type": "address"
        },
        {
          "internalType": "uint256",
          "name": "tokenId",
          "type": "uint256"
        }
      ],
      "name": "safeTransferFrom",
      "outputs": [],
      "stateMutability": "nonpayable",
      "type": "function"
    },
    {
      "inputs": [
        {
          "internalType": "address",
          "name": "from",
          "type": "address"
        },
        {
          "internalType": "address",
          "name": "to",
          "type": "address"
        },
        {
          "internalType": "uint256",
          "name": "tokenId",
          "type": "uint256"
        },
        {
          "internalType": "bytes",
          "name": "data",
          "type": "bytes"
        }
      ],
      "name": "safeTransferFrom",
      "outputs": [],
      "stateMutability": "nonpayable",
      "type": "function"
    },
    {
      "inputs": [
        {
          "internalType": "address",
          "name": "operator",
          "type": "address"
        },
        {
          "internalType": "bool",
          "name": "approved",
          "type": "bool"
        }
      ],
      "name": "setApprovalForAll",
      "outputs": [],
      "stateMutability": "nonpayable",
      "type": "function"
    },
    {
      "inputs": [
        {
          "internalType": "bytes4",
          "name": "interfaceId",
          "type": "bytes4"
        }
      ],
      "name": "supportsInterface",
      "outputs": [
        {
          "internalType": "bool",
          "name": "",
          "type": "bool"
        }
      ],
      "stateMutability": "view",
      "type": "function"
    },
    {
      "inputs": [],
      "name": "symbol",
      "outputs": [
        {
          "internalType": "string",
          "name": "",
          "type": "string"
        }
      ],
      "stateMutability": "view",
      "type": "function"
    },
    {
      "inputs": [
        {
          "internalType": "uint256",
          "name": "tokenId",
          "type": "uint256"
        }
      ],
      "name": "tokenURI",
      "outputs": [
        {
          "internalType": "string",
          "name": "",
          "type": "string"
        }
      ],
      "stateMutability": "view",
      "type": "function"
    },
    {
      "inputs": [
        {
          "internalType": "uint256",
          "name": "tokenId",
          "type": "uint256"
        },
        {
          "internalType": "address",
          "name": "newOwner",
          "type": "address"
        }
      ],
      "name": "transferCertificate",
      "outputs": [],
      "stateMutability": "nonpayable",
      "type": "function"
    },
    {
      "inputs": [
        {
          "internalType": "address",
          "name": "from",
          "type": "address"
        },
        {
          "internalType": "address",
          "name": "to",
          "type": "address"
        },
        {
          "internalType": "uint256",
          "name": "tokenId",
          "type": "uint256"
        }
      ],
      "name": "transferFrom",
      "outputs": [],
      "stateMutability": "nonpayable",
      "type": "function"
    },
    {
      "inputs": [
        {
          "internalType": "address",
          "name": "newOwner",
          "type": "address"
        }
      ],
      "name": "transferOwnership",
      "outputs": [],
      "stateMutability": "nonpayable",
      "type": "function"
    },
    {
      "inputs": [],
      "name": "unpauseContract",
      "outputs": [],
      "stateMutability": "nonpayable",
      "type": "function"
    },
    {
      "inputs": [
        {
          "internalType": "uint256",
          "name": "tokenId",
          "type": "uint256"
        },
        {
          "internalType": "string",
          "name": "newURI",
          "type": "string"
        }
      ],
      "name": "updateCertificateURI",
      "outputs": [],
      "stateMutability": "nonpayable",
      "type": "function"
    },
    {
      "inputs": [
        {
          "internalType": "uint256",
          "name": "tokenId",
          "type": "uint256"
        }
      ],
      "name": "verifyCertificate",
      "outputs": [
        {
          "internalType": "address",
          "name": "owner",
          "type": "address"
        },
        {
          "internalType": "bool",
          "name": "isValid",
          "type": "bool"
        }
      ],
      "stateMutability": "view",
      "type": "function"
    }
  ],
  "bytecode": "0x608060405234801561001057600080fd5b506040518060400160405280600c81526020017f456475426c6f636b4365727400000000000000000000000000000000000000008152506040518060400160405280600381526020017f4542430000000000000000000000000000000000000000000000000000000000815250816000908161008c91906103f9565b50806001908161009c91906103f9565b5050506100bb6100b06100db60201b60201c565b6100e360201b60201c565b6000600760146101000a81548160ff0219169083151502179055506104cb565b600033905090565b6000600760009054906101000a900473ffffffffffffffffffffffffffffffffffffffff16905081600760006101000a81548173ffffffffffffffffffffffffffffffffffffffff021916908373ffffffffffffffffffffffffffffffffffffffff1602179055508173ffffffffffffffffffffffffffffffffffffffff168173ffffffffffffffffffffffffffffffffffffffff167f8be0079c531659141344cd1fd0a4f28419497f9722a3daafe3b4186f6b6457e060405160405180910390a35050565b600081519050919050565b7f4e487b7100000000000000000000000000000000000000000000000000000000600052604160045260246000fd5b7f4e487b7100000000000000000000000000000000000000000000000000000000600052602260045260246000fd5b6000600282049050600182168061022a57607f821691505b60208210810361023d5761023c6101e3565b5b50919050565b60008190508160005260206000209050919050565b60006020601f8301049050919050565b600082821b905092915050565b6000600883026102a57fffffffffffffffffffffffffffffffffffffffffffffffffffffffffffffffff82610268565b6102af8683610268565b95508019841693508086168417925050509392505050565b6000819050919050565b6000819050919050565b60006102f66102f16102ec846102c7565b6102d1565b6102c7565b9050919050565b6000819050919050565b610310836102db565b61032461031c826102fd565b848454610275565b825550505050565b600090565b61033961032c565b610344818484610307565b505050565b5b818110156103685761035d600082610331565b60018101905061034a565b5050565b601f8211156103ad5761037e81610243565b61038784610258565b81016020851015610396578190505b6103aa6103a285610258565b830182610349565b50505b505050565b600082821c905092915050565b60006103d0600019846008026103b2565b1980831691505092915050565b60006103e983836103bf565b9150826002028217905092915050565b610402826101a9565b67ffffffffffffffff81111561041b5761041a6101b4565b5b6104258254610212565b61043082828561036c565b600060209050601f8311600181146104635760008415610451578287015190505b61045b85826103dd565b8655506104c3565b601f19841661047186610243565b60005b8281101561049957848901518255600182019150602085019450602081019050610474565b868310156104b657848901516104b2601f8916826103bf565b8355505b6001600288020188555050505b505050505050565b61393a806104da6000396000f3fe608060405234801561001057600080fd5b506004361061018e5760003560e01c806370a08231116100de578063b33712c511610097578063cf3ae93411610071578063cf3ae93414610483578063e985e9c51461049f578063f2fde38b146104cf578063f85ad0d6146104eb5761018e565b8063b33712c51461042d578063b88d4fde14610437578063c87b56dd146104535761018e565b806370a082311461036b578063715018a61461039b5780638da5cb5b146103a557806395d89b41146103c3578063a22cb465146103e1578063a5ce413a146103fd5761018e565b80631692a9421161014b57806342842e0e1161012557806342842e0e146102f7578063439766ce146103135780635c975abb1461031d5780636352211e1461033b5761018e565b80631692a9421461027957806323b872dd146102aa57806331494bbb146102c65761018e565b806301ffc9a71461019357806306f5497e146101c357806306fdde03146101df5780630712249f146101fd578063081812fc1461022d578063095ea7b31461025d575b600080fd5b6101ad60048036038101906101a891906123a3565b610507565b6040516101ba91906123eb565b60405180910390f35b6101dd60048036038101906101d8919061243c565b610568565b005b6101e7610614565b6040516101f491906124f9565b60405180910390f35b610217600480360381019061021291906126ae565b6106a6565b6040516102249190612719565b60405180910390f35b6102476004803603810190610242919061243c565b610779565b6040516102549190612743565b60405180910390f35b6102776004803603810190610272919061275e565b6107bf565b005b610293600480360381019061028e919061243c565b6108d6565b6040516102a192919061279e565b60405180910390f35b6102c460048036038101906102bf91906127c7565b610955565b005b6102e060048036038101906102db919061243c565b6109b5565b6040516102ee92919061281a565b60405180910390f35b610311600480360381019061030c91906127c7565b610a34565b005b61031b610a54565b005b610325610a66565b60405161033291906123eb565b60405180910390f35b6103556004803603810190610350919061243c565b610a7d565b6040516103629190612743565b60405180910390f35b6103856004803603810190610380919061284a565b610b03565b6040516103929190612719565b60405180910390f35b6103a3610bba565b005b6103ad610bce565b6040516103ba9190612743565b60405180910390f35b6103cb610bf8565b6040516103d891906124f9565b60405180910390f35b6103fb60048036038101906103f691906128a3565b610c8a565b005b6104176004803603810190610412919061243c565b610ca0565b60405161042491906123eb565b60405180910390f35b610435610d13565b005b610451600480360381019061044c9190612984565b610d25565b005b61046d6004803603810190610468919061243c565b610d87565b60405161047a91906124f9565b60405180910390f35b61049d60048036038101906104989190612a07565b610e99565b005b6104b960048036038101906104b49190612a47565b610faa565b6040516104c691906123eb565b60405180910390f35b6104e960048036038101906104e4919061284a565b61103e565b005b61050560048036038101906105009190612a87565b6110c1565b005b6000634906490660e01b7bffffffffffffffffffffffffffffffffffffffffffffffffffffffff1916827bffffffffffffffffffffffffffffffffffffffffffffffffffffffff19161480610561575061056082611157565b5b9050919050565b610570611239565b610579816112b7565b6105b8576040517f08c379a00000000000000000000000000000000000000000000000000000000081526004016105af90612b2f565b60405180910390fd5b60016009600083815260200190815260200160002060006101000a81548160ff021916908315150217905550807fefa6c5f47ac2523bb4db18032377bf7fdce0fa9d86eddcae1ca9bba38be615d760405160405180910390a250565b60606000805461062390612b7e565b80601f016020809104026020016040519081016040528092919081815260200182805461064f90612b7e565b801561069c5780601f106106715761010080835404028352916020019161069c565b820191906000526020600020905b81548152906001019060200180831161067f57829003601f168201915b5050505050905090565b60006106b0611239565b6106b8610a66565b156106f8576040517f08c379a00000000000000000000000000000000000000000000000000000000081526004016106ef90612bfb565b60405180910390fd5b6008600081548092919061070b90612c4a565b91905055506000600854905061072184826112f8565b61072b8184611515565b808473ffffffffffffffffffffffffffffffffffffffff167fe351802b022b8ba03353eafd05148198c0dc13061427df4dbbbbfc5c726a1b9e60405160405180910390a38091505092915050565b6000610784826115b9565b6004600083815260200190815260200160002060009054906101000a900473ffffffffffffffffffffffffffffffffffffffff169050919050565b60006107ca82610a7d565b90508073ffffffffffffffffffffffffffffffffffffffff168373ffffffffffffffffffffffffffffffffffffffff160361083a576040517f08c379a000000000000000000000000000000000000000000000000000000000815260040161083190612d04565b60405180910390fd5b8073ffffffffffffffffffffffffffffffffffffffff16610859611604565b73ffffffffffffffffffffffffffffffffffffffff161480610888575061088781610882611604565b610faa565b5b6108c7576040517f08c379a00000000000000000000000000000000000000000000000000000000081526004016108be90612d96565b60405180910390fd5b6108d1838361160c565b505050565b6000806108e2836112b7565b610921576040517f08c379a000000000000000000000000000000000000000000000000000000000815260040161091890612b2f565b60405180910390fd5b61092a83610a7d565b6009600085815260200190815260200160002060009054906101000a900460ff161591509150915091565b610966610960611604565b826116c5565b6109a5576040517f08c379a000000000000000000000000000000000000000000000000000000000815260040161099c90612e28565b60405180910390fd5b6109b083838361175a565b505050565b606060006109c2836112b7565b610a01576040517f08c379a00000000000000000000000000000000000000000000000000000000081526004016109f890612b2f565b60405180910390fd5b610a0a83610d87565b6009600085815260200190815260200160002060009054906101000a900460ff1691509150915091565b610a4f83838360405180602001604052806000815250610d25565b505050565b610a5c611239565b610a64611a53565b565b6000600760149054906101000a900460ff16905090565b600080610a8983611ab6565b9050600073ffffffffffffffffffffffffffffffffffffffff168173ffffffffffffffffffffffffffffffffffffffff1603610afa576040517f08c379a0000000000000000000000000000000000000000000000000000000008152600401610af190612e94565b60405180910390fd5b80915050919050565b60008073ffffffffffffffffffffffffffffffffffffffff168273ffffffffffffffffffffffffffffffffffffffff1603610b73576040517f08c379a0000000000000000000000000000000000000000000000000000000008152600401610b6a90612f26565b60405180910390fd5b600360008373ffffffffffffffffffffffffffffffffffffffff1673ffffffffffffffffffffffffffffffffffffffff168152602001908152602001600020549050919050565b610bc2611239565b610bcc6000611af3565b565b6000600760009054906101000a900473ffffffffffffffffffffffffffffffffffffffff16905090565b606060018054610c0790612b7e565b80601f0160208091040260200160405190810160405280929190818152602001828054610c3390612b7e565b8015610c805780601f10610c5557610100808354040283529160200191610c80565b820191906000526020600020905b815481529060010190602001808311610c6357829003601f168201915b5050505050905090565b610c9c610c95611604565b8383611bb9565b5050565b6000610cab826112b7565b610cea576040517f08c379a0000000000000000000000000000000000000000000000000000000008152600401610ce190612b2f565b60405180910390fd5b6009600083815260200190815260200160002060009054906101000a900460ff16159050919050565b610d1b611239565b610d23611d25565b565b610d36610d30611604565b836116c5565b610d75576040517f08c379a0000000000000000000000000000000000000000000000000000000008152600401610d6c90612e28565b60405180910390fd5b610d8184848484611d88565b50505050565b6060610d92826115b9565b6000600660008481526020019081526020016000208054610db290612b7e565b80601f0160208091040260200160405190810160405280929190818152602001828054610dde90612b7e565b8015610e2b5780601f10610e0057610100808354040283529160200191610e2b565b820191906000526020600020905b815481529060010190602001808311610e0e57829003601f168201915b505050505090506000610e3c611de4565b90506000815103610e51578192505050610e94565b600082511115610e86578082604051602001610e6e929190612f82565b60405160208183030381529060405292505050610e94565b610e8f84611dfb565b925050505b919050565b610ea1610a66565b15610ee1576040517f08c379a0000000000000000000000000000000000000000000000000000000008152600401610ed890612bfb565b60405180910390fd5b3373ffffffffffffffffffffffffffffffffffffffff16610f0183610a7d565b73ffffffffffffffffffffffffffffffffffffffff1614610f57576040517f08c379a0000000000000000000000000000000000000000000000000000000008152600401610f4e90612ff2565b60405180910390fd5b610f6233828461175a565b8073ffffffffffffffffffffffffffffffffffffffff16827f7efe5ed05e355331fa85c1f51f1d524eed737a77e693a7475517b432a0fa420060405160405180910390a35050565b6000600560008473ffffffffffffffffffffffffffffffffffffffff1673ffffffffffffffffffffffffffffffffffffffff16815260200190815260200160002060008373ffffffffffffffffffffffffffffffffffffffff1673ffffffffffffffffffffffffffffffffffffffff16815260200190815260200160002060009054906101000a900460ff16905092915050565b611046611239565b600073ffffffffffffffffffffffffffffffffffffffff168173ffffffffffffffffffffffffffffffffffffffff16036110b5576040517f08c379a00000000000000000000000000000000000000000000000000000000081526004016110ac90613084565b60405180910390fd5b6110be81611af3565b50565b6110c9611239565b6110d2826112b7565b611111576040517f08c379a000000000000000000000000000000000000000000000000000000000815260040161110890612b2f565b60405180910390fd5b61111b8282611515565b817f8ec4f0b2c01a4b88ec283662cd55af9fbf87610e4d79962544047716304e68078260405161114b91906124f9565b60405180910390a25050565b60007f80ac58cd000000000000000000000000000000000000000000000000000000007bffffffffffffffffffffffffffffffffffffffffffffffffffffffff1916827bffffffffffffffffffffffffffffffffffffffffffffffffffffffff1916148061122257507f5b5e139f000000000000000000000000000000000000000000000000000000007bffffffffffffffffffffffffffffffffffffffffffffffffffffffff1916827bffffffffffffffffffffffffffffffffffffffffffffffffffffffff1916145b80611232575061123182611e63565b5b9050919050565b611241611604565b73ffffffffffffffffffffffffffffffffffffffff1661125f610bce565b73ffffffffffffffffffffffffffffffffffffffff16146112b5576040517f08c379a00000000000000000000000000000000000000000000000000000000081526004016112ac906130f0565b60405180910390fd5b565b60008073ffffffffffffffffffffffffffffffffffffffff166112d983611ab6565b73ffffffffffffffffffffffffffffffffffffffff1614159050919050565b600073ffffffffffffffffffffffffffffffffffffffff168273ffffffffffffffffffffffffffffffffffffffff1603611367576040517f08c379a000000000000000000000000000000000000000000000000000000000815260040161135e9061315c565b60405180910390fd5b611370816112b7565b156113b0576040517f08c379a00000000000000000000000000000000000000000000000000000000081526004016113a7906131c8565b60405180910390fd5b6113be600083836001611ecd565b6113c7816112b7565b15611407576040517f08c379a00000000000000000000000000000000000000000000000000000000081526004016113fe906131c8565b60405180910390fd5b6001600360008473ffffffffffffffffffffffffffffffffffffffff1673ffffffffffffffffffffffffffffffffffffffff16815260200190815260200160002060008282540192505081905550816002600083815260200190815260200160002060006101000a81548173ffffffffffffffffffffffffffffffffffffffff021916908373ffffffffffffffffffffffffffffffffffffffff160217905550808273ffffffffffffffffffffffffffffffffffffffff16600073ffffffffffffffffffffffffffffffffffffffff167fddf252ad1be2c89b69c2b068fc378daa952ba7f163c4a11628f55a4df523b3ef60405160405180910390a4611511600083836001611ed3565b5050565b61151e826112b7565b61155d576040517f08c379a00000000000000000000000000000000000000000000000000000000081526004016115549061325a565b60405180910390fd5b8060066000848152602001908152602001600020908161157d9190613426565b507ff8e1a15aba9398e019f0b49df1a4fde98ee17ae345cb5f6b5e2c27f5033e8ce7826040516115ad9190612719565b60405180910390a15050565b6115c2816112b7565b611601576040517f08c379a00000000000000000000000000000000000000000000000000000000081526004016115f890612e94565b60405180910390fd5b50565b600033905090565b816004600083815260200190815260200160002060006101000a81548173ffffffffffffffffffffffffffffffffffffffff021916908373ffffffffffffffffffffffffffffffffffffffff160217905550808273ffffffffffffffffffffffffffffffffffffffff1661167f83610a7d565b73ffffffffffffffffffffffffffffffffffffffff167f8c5be1e5ebec7d5bd14f71427d1e84f3dd0314c0f7b2291e5b200ac8c7c3b92560405160405180910390a45050565b6000806116d183610a7d565b90508073ffffffffffffffffffffffffffffffffffffffff168473ffffffffffffffffffffffffffffffffffffffff16148061171357506117128185610faa565b5b8061175157508373ffffffffffffffffffffffffffffffffffffffff1661173984610779565b73ffffffffffffffffffffffffffffffffffffffff16145b91505092915050565b8273ffffffffffffffffffffffffffffffffffffffff1661177a82610a7d565b73ffffffffffffffffffffffffffffffffffffffff16146117d0576040517f08c379a00000000000000000000000000000000000000000000000000000000081526004016117c79061356a565b60405180910390fd5b600073ffffffffffffffffffffffffffffffffffffffff168273ffffffffffffffffffffffffffffffffffffffff160361183f576040517f08c379a0000000000000000000000000000000000000000000000000000000008152600401611836906135fc565b60405180910390fd5b61184c8383836001611ecd565b8273ffffffffffffffffffffffffffffffffffffffff1661186c82610a7d565b73ffffffffffffffffffffffffffffffffffffffff16146118c2576040517f08c379a00000000000000000000000000000000000000000000000000000000081526004016118b99061356a565b60405180910390fd5b6004600082815260200190815260200160002060006101000a81549073ffffffffffffffffffffffffffffffffffffffff02191690556001600360008573ffffffffffffffffffffffffffffffffffffffff1673ffffffffffffffffffffffffffffffffffffffff168152602001908152602001600020600082825403925050819055506001600360008473ffffffffffffffffffffffffffffffffffffffff1673ffffffffffffffffffffffffffffffffffffffff16815260200190815260200160002060008282540192505081905550816002600083815260200190815260200160002060006101000a81548173ffffffffffffffffffffffffffffffffffffffff021916908373ffffffffffffffffffffffffffffffffffffffff160217905550808273ffffffffffffffffffffffffffffffffffffffff168473ffffffffffffffffffffffffffffffffffffffff167fddf252ad1be2c89b69c2b068fc378daa952ba7f163c4a11628f55a4df523b3ef60405160405180910390a4611a4e8383836001611ed3565b505050565b611a5b611ed9565b6001600760146101000a81548160ff0219169083151502179055507f62e78cea01bee320cd4e420270b5ea74000d11b0c9f74754ebdbfc544b05a258611a9f611604565b604051611aac9190612743565b60405180910390a1565b60006002600083815260200190815260200160002060009054906101000a900473ffffffffffffffffffffffffffffffffffffffff169050919050565b6000600760009054906101000a900473ffffffffffffffffffffffffffffffffffffffff16905081600760006101000a81548173ffffffffffffffffffffffffffffffffffffffff021916908373ffffffffffffffffffffffffffffffffffffffff1602179055508173ffffffffffffffffffffffffffffffffffffffff168173ffffffffffffffffffffffffffffffffffffffff167f8be0079c531659141344cd1fd0a4f28419497f9722a3daafe3b4186f6b6457e060405160405180910390a35050565b8173ffffffffffffffffffffffffffffffffffffffff168373ffffffffffffffffffffffffffffffffffffffff1603611c27576040517f08c379a0000000000000000000000000000000000000000000000000000000008152600401611c1e90613668565b60405180910390fd5b80600560008573ffffffffffffffffffffffffffffffffffffffff1673ffffffffffffffffffffffffffffffffffffffff16815260200190815260200160002060008473ffffffffffffffffffffffffffffffffffffffff1673ffffffffffffffffffffffffffffffffffffffff16815260200190815260200160002060006101000a81548160ff0219169083151502179055508173ffffffffffffffffffffffffffffffffffffffff168373ffffffffffffffffffffffffffffffffffffffff167f17307eab39ab6107e8899845ad3d59bd9653f200f220920489ca2b5937696c3183604051611d1891906123eb565b60405180910390a3505050565b611d2d611f23565b6000600760146101000a81548160ff0219169083151502179055507f5db9ee0a495bf2e6ff9c91a7834c1ba4fdd244a5e8aa4e537bd38aeae4b073aa611d71611604565b604051611d7e9190612743565b60405180910390a1565b611d9384848461175a565b611d9f84848484611f6c565b611dde576040517f08c379a0000000000000000000000000000000000000000000000000000000008152600401611dd5906136fa565b60405180910390fd5b50505050565b606060405180602001604052806000815250905090565b6060611e06826115b9565b6000611e10611de4565b90506000815111611e305760405180602001604052806000815250611e5b565b80611e3a846120f3565b604051602001611e4b929190612f82565b6040516020818303038152906040525b915050919050565b60007f01ffc9a7000000000000000000000000000000000000000000000000000000007bffffffffffffffffffffffffffffffffffffffffffffffffffffffff1916827bffffffffffffffffffffffffffffffffffffffffffffffffffffffff1916149050919050565b50505050565b50505050565b611ee1610a66565b15611f21576040517f08c379a0000000000000000000000000000000000000000000000000000000008152600401611f1890613766565b60405180910390fd5b565b611f2b610a66565b611f6a576040517f08c379a0000000000000000000000000000000000000000000000000000000008152600401611f61906137d2565b60405180910390fd5b565b6000611f8d8473ffffffffffffffffffffffffffffffffffffffff166121c1565b156120e6578373ffffffffffffffffffffffffffffffffffffffff1663150b7a02611fb6611604565b8786866040518563ffffffff1660e01b8152600401611fd89493929190613847565b6020604051808303816000875af192505050801561201457506040513d601f19601f8201168201806040525081019061201191906138a8565b60015b612096573d8060008114612044576040519150601f19603f3d011682016040523d82523d6000602084013e612049565b606091505b50600081510361208e576040517f08c379a0000000000000000000000000000000000000000000000000000000008152600401612085906136fa565b60405180910390fd5b805181602001fd5b63150b7a0260e01b7bffffffffffffffffffffffffffffffffffffffffffffffffffffffff1916817bffffffffffffffffffffffffffffffffffffffffffffffffffffffff1916149150506120eb565b600190505b949350505050565b606060006001612102846121e4565b01905060008167ffffffffffffffff81111561212157612120612583565b5b6040519080825280601f01601f1916602001820160405280156121535781602001600182028036833780820191505090505b509050600082602001820190505b6001156121b6578080600190039150507f3031323334353637383961626364656600000000000000000000000000000000600a86061a8153600a85816121aa576121a96138d5565b5b04945060008503612161575b819350505050919050565b6000808273ffffffffffffffffffffffffffffffffffffffff163b119050919050565b600080600090507a184f03e93ff9f4daa797ed6e38ed64bf6a1f0100000000000000008310612242577a184f03e93ff9f4daa797ed6e38ed64bf6a1f0100000000000000008381612238576122376138d5565b5b0492506040810190505b6d04ee2d6d415b85acef8100000000831061227f576d04ee2d6d415b85acef81000000008381612275576122746138d5565b5b0492506020810190505b662386f26fc1000083106122ae57662386f26fc1000083816122a4576122a36138d5565b5b0492506010810190505b6305f5e10083106122d7576305f5e10083816122cd576122cc6138d5565b5b0492506008810190505b61271083106122fc5761271083816122f2576122f16138d5565b5b0492506004810190505b6064831061231f5760648381612315576123146138d5565b5b0492506002810190505b600a831061232e576001810190505b80915050919050565b6000604051905090565b600080fd5b600080fd5b60007fffffffff0000000000000000000000000000000000000000000000000000000082169050919050565b6123808161234b565b811461238b57600080fd5b50565b60008135905061239d81612377565b92915050565b6000602082840312156123b9576123b8612341565b5b60006123c78482850161238e565b91505092915050565b60008115159050919050565b6123e5816123d0565b82525050565b600060208201905061240060008301846123dc565b92915050565b6000819050919050565b61241981612406565b811461242457600080fd5b50565b60008135905061243681612410565b92915050565b60006020828403121561245257612451612341565b5b600061246084828501612427565b91505092915050565b600081519050919050565b600082825260208201905092915050565b60005b838110156124a3578082015181840152602081019050612488565b60008484015250505050565b6000601f19601f8301169050919050565b60006124cb82612469565b6124d58185612474565b93506124e5818560208601612485565b6124ee816124af565b840191505092915050565b6000602082019050818103600083015261251381846124c0565b905092915050565b600073ffffffffffffffffffffffffffffffffffffffff82169050919050565b60006125468261251b565b9050919050565b6125568161253b565b811461256157600080fd5b50565b6000813590506125738161254d565b92915050565b600080fd5b600080fd5b7f4e487b7100000000000000000000000000000000000000000000000000000000600052604160045260246000fd5b6125bb826124af565b810181811067ffffffffffffffff821117156125da576125d9612583565b5b80604052505050565b60006125ed612337565b90506125f982826125b2565b919050565b600067ffffffffffffffff82111561261957612618612583565b5b612622826124af565b9050602081019050919050565b82818337600083830152505050565b600061265161264c846125fe565b6125e3565b90508281526020810184848401111561266d5761266c61257e565b5b61267884828561262f565b509392505050565b600082601f83011261269557612694612579565b5b81356126a584826020860161263e565b91505092915050565b600080604083850312156126c5576126c4612341565b5b60006126d385828601612564565b925050602083013567ffffffffffffffff8111156126f4576126f3612346565b5b61270085828601612680565b9150509250929050565b61271381612406565b82525050565b600060208201905061272e600083018461270a565b92915050565b61273d8161253b565b82525050565b60006020820190506127586000830184612734565b92915050565b6000806040838503121561277557612774612341565b5b600061278385828601612564565b925050602061279485828601612427565b9150509250929050565b60006040820190506127b36000830185612734565b6127c060208301846123dc565b9392505050565b6000806000606084860312156127e0576127df612341565b5b60006127ee86828701612564565b93505060206127ff86828701612564565b925050604061281086828701612427565b9150509250925092565b6000604082019050818103600083015261283481856124c0565b905061284360208301846123dc565b9392505050565b6000602082840312156128605761285f612341565b5b600061286e84828501612564565b91505092915050565b612880816123d0565b811461288b57600080fd5b50565b60008135905061289d81612877565b92915050565b600080604083850312156128ba576128b9612341565b5b60006128c885828601612564565b92505060206128d98582860161288e565b9150509250929050565b600067ffffffffffffffff8211156128fe576128fd612583565b5b612907826124af565b9050602081019050919050565b6000612927612922846128e3565b6125e3565b9050828152602081018484840111156129435761294261257e565b5b61294e84828561262f565b509392505050565b600082601f83011261296b5761296a612579565b5b813561297b848260208601612914565b91505092915050565b6000806000806080858703121561299e5761299d612341565b5b60006129ac87828801612564565b94505060206129bd87828801612564565b93505060406129ce87828801612427565b925050606085013567ffffffffffffffff8111156129ef576129ee612346565b5b6129fb87828801612956565b91505092959194509250565b60008060408385031215612a1e57612a1d612341565b5b6000612a2c85828601612427565b9250506020612a3d85828601612564565b9150509250929050565b60008060408385031215612a5e57612a5d612341565b5b6000612a6c85828601612564565b9250506020612a7d85828601612564565b9150509250929050565b60008060408385031215612a9e57612a9d612341565b5b6000612aac85828601612427565b925050602083013567ffffffffffffffff811115612acd57612acc612346565b5b612ad985828601612680565b9150509250929050565b7f546f6b656e20646f6573206e6f74206578697374000000000000000000000000600082015250565b6000612b19601483612474565b9150612b2482612ae3565b602082019050919050565b60006020820190508181036000830152612b4881612b0c565b9050919050565b7f4e487b7100000000000000000000000000000000000000000000000000000000600052602260045260246000fd5b60006002820490506001821680612b9657607f821691505b602082108103612ba957612ba8612b4f565b5b50919050565b7f436f6e7472616374206973207061757365640000000000000000000000000000600082015250565b6000612be5601283612474565b9150612bf082612baf565b602082019050919050565b60006020820190508181036000830152612c1481612bd8565b9050919050565b7f4e487b7100000000000000000000000000000000000000000000000000000000600052601160045260246000fd5b6000612c5582612406565b91507fffffffffffffffffffffffffffffffffffffffffffffffffffffffffffffffff8203612c8757612c86612c1b565b5b600182019050919050565b7f4552433732313a20617070726f76616c20746f2063757272656e74206f776e6560008201527f7200000000000000000000000000000000000000000000000000000000000000602082015250565b6000612cee602183612474565b9150612cf982612c92565b604082019050919050565b60006020820190508181036000830152612d1d81612ce1565b9050919050565b7f4552433732313a20617070726f76652063616c6c6572206973206e6f7420746f60008201527f6b656e206f776e6572206f7220617070726f76656420666f7220616c6c000000602082015250565b6000612d80603d83612474565b9150612d8b82612d24565b604082019050919050565b60006020820190508181036000830152612daf81612d73565b9050919050565b7f4552433732313a2063616c6c6572206973206e6f7420746f6b656e206f776e6560008201527f72206f7220617070726f76656400000000000000000000000000000000000000602082015250565b6000612e12602d83612474565b9150612e1d82612db6565b604082019050919050565b60006020820190508181036000830152612e4181612e05565b9050919050565b7f4552433732313a20696e76616c696420746f6b656e2049440000000000000000600082015250565b6000612e7e601883612474565b9150612e8982612e48565b602082019050919050565b60006020820190508181036000830152612ead81612e71565b9050919050565b7f4552433732313a2061646472657373207a65726f206973206e6f74206120766160008201527f6c6964206f776e65720000000000000000000000000000000000000000000000602082015250565b6000612f10602983612474565b9150612f1b82612eb4565b604082019050919050565b60006020820190508181036000830152612f3f81612f03565b9050919050565b600081905092915050565b6000612f5c82612469565b612f668185612f46565b9350612f76818560208601612485565b80840191505092915050565b6000612f8e8285612f51565b9150612f9a8284612f51565b91508190509392505050565b7f43616c6c6572206973206e6f7420746865206f776e6572000000000000000000600082015250565b6000612fdc601783612474565b9150612fe782612fa6565b602082019050919050565b6000602082019050818103600083015261300b81612fcf565b9050919050565b7f4f776e61626c653a206e6577206f776e657220697320746865207a65726f206160008201527f6464726573730000000000000000000000000000000000000000000000000000602082015250565b600061306e602683612474565b915061307982613012565b604082019050919050565b6000602082019050818103600083015261309d81613061565b9050919050565b7f4f776e61626c653a2063616c6c6572206973206e6f7420746865206f776e6572600082015250565b60006130da602083612474565b91506130e5826130a4565b602082019050919050565b60006020820190508181036000830152613109816130cd565b9050919050565b7f4552433732313a206d696e7420746f20746865207a65726f2061646472657373600082015250565b6000613146602083612474565b915061315182613110565b602082019050919050565b6000602082019050818103600083015261317581613139565b9050919050565b7f4552433732313a20746f6b656e20616c7265616479206d696e74656400000000600082015250565b60006131b2601c83612474565b91506131bd8261317c565b602082019050919050565b600060208201905081810360008301526131e1816131a5565b9050919050565b7f45524337323155524953746f726167653a2055524920736574206f66206e6f6e60008201527f6578697374656e7420746f6b656e000000000000000000000000000000000000602082015250565b6000613244602e83612474565b915061324f826131e8565b604082019050919050565b6000602082019050818103600083015261327381613237565b9050919050565b60008190508160005260206000209050919050565b60006020601f8301049050919050565b600082821b905092915050565b6000600883026132dc7fffffffffffffffffffffffffffffffffffffffffffffffffffffffffffffffff8261329f565b6132e6868361329f565b95508019841693508086168417925050509392505050565b6000819050919050565b600061332361331e61331984612406565b6132fe565b612406565b9050919050565b6000819050919050565b61333d83613308565b6133516133498261332a565b8484546132ac565b825550505050565b600090565b613366613359565b613371818484613334565b505050565b5b818110156133955761338a60008261335e565b600181019050613377565b5050565b601f8211156133da576133ab8161327a565b6133b48461328f565b810160208510156133c3578190505b6133d76133cf8561328f565b830182613376565b50505b505050565b600082821c905092915050565b60006133fd600019846008026133df565b1980831691505092915050565b600061341683836133ec565b9150826002028217905092915050565b61342f82612469565b67ffffffffffffffff81111561344857613447612583565b5b6134528254612b7e565b61345d828285613399565b600060209050601f831160018114613490576000841561347e578287015190505b613488858261340a565b8655506134f0565b601f19841661349e8661327a565b60005b828110156134c6578489015182556001820191506020850194506020810190506134a1565b868310156134e357848901516134df601f8916826133ec565b8355505b6001600288020188555050505b505050505050565b7f4552433732313a207472616e736665722066726f6d20696e636f72726563742060008201527f6f776e6572000000000000000000000000000000000000000000000000000000602082015250565b6000613554602583612474565b915061355f826134f8565b604082019050919050565b6000602082019050818103600083015261358381613547565b9050919050565b7f4552433732313a207472616e7366657220746f20746865207a65726f2061646460008201527f7265737300000000000000000000000000000000000000000000000000000000602082015250565b60006135e6602483612474565b91506135f18261358a565b604082019050919050565b60006020820190508181036000830152613615816135d9565b9050919050565b7f4552433732313a20617070726f766520746f2063616c6c657200000000000000600082015250565b6000613652601983612474565b915061365d8261361c565b602082019050919050565b6000602082019050818103600083015261368181613645565b9050919050565b7f4552433732313a207472616e7366657220746f206e6f6e20455243373231526560008201527f63656976657220696d706c656d656e7465720000000000000000000000000000602082015250565b60006136e4603283612474565b91506136ef82613688565b604082019050919050565b60006020820190508181036000830152613713816136d7565b9050919050565b7f5061757361626c653a2070617573656400000000000000000000000000000000600082015250565b6000613750601083612474565b915061375b8261371a565b602082019050919050565b6000602082019050818103600083015261377f81613743565b9050919050565b7f5061757361626c653a206e6f7420706175736564000000000000000000000000600082015250565b60006137bc601483612474565b91506137c782613786565b602082019050919050565b600060208201905081810360008301526137eb816137af565b9050919050565b600081519050919050565b600082825260208201905092915050565b6000613819826137f2565b61382381856137fd565b9350613833818560208601612485565b61383c816124af565b840191505092915050565b600060808201905061385c6000830187612734565b6138696020830186612734565b613876604083018561270a565b8181036060830152613888818461380e565b905095945050505050565b6000815190506138a281612377565b92915050565b6000602082840312156138be576138bd612341565b5b60006138cc84828501613893565b91505092915050565b7f4e487b7100000000000000000000000000000000000000000000000000000000600052601260045260246000fdfea26469706673582212209f154db531fa20f9e6a0cb22566e4eb6b6a7e61d4ea78c64121239b15a4304b764736f6c634300081c0033",
  "linkReferences": {},
  "deployedLinkReferences": {}
}